S01700004763634170706C69636174696F6E312E737265635B
S11300000C9434000C943E000C943E000C943E007E
S11300100C943E000C943E000C943E000C943E0064
S11300200C943E000C943E000C943E000C943E0054
S11300300C943E000C943E000C943E000C943E0044
S11300400C943E000C943E000C943E000C943E0034
S11300500C943E000C943E000C943E000C943E0024
S11300600C943E000C943E0011241FBECFEFD8E048
S1130070DEBFCDBF0E9440000C946C000C940000C5
S1130080219AE0E8F0E0808181688083E1E8F0E093
S113009080818A6080831092890010928800E8E849
S11300A0F0E080E090E091838083A3ECB9E01197C5
S11300B0F1F700C0000001968F3F9105A1F78FEF83
S11300C090E091838083A3ECB9E01197F1F700C02D
S10F00D000000197B1F7E5CFF894FFCFD2
S9030000FC
